{
  "contractName": "MoolaStakingRewards",
  "abi": [
    {
      "inputs": [
        {
          "internalType": "address",
          "name": "_owner",
          "type": "address"
        },
        {
          "internalType": "address",
          "name": "_rewardsDistribution",
          "type": "address"
        },
        {
          "internalType": "address",
          "name": "_rewardsToken",
          "type": "address"
        },
        {
          "internalType": "contract IStakingRewards",
          "name": "_externalStakingRewards",
          "type": "address"
        }
      ],
      "stateMutability": "nonpayable",
      "type": "constructor"
    },
    {
      "anonymous": false,
      "inputs": [
        {
          "indexed": true,
          "internalType": "address",
          "name": "user",
          "type": "address"
        },
        {
          "indexed": false,
          "internalType": "uint256",
          "name": "reward",
          "type": "uint256"
        }
      ],
      "name": "ExternalRewardPaid",
      "type": "event"
    },
    {
      "anonymous": false,
      "inputs": [
        {
          "indexed": false,
          "internalType": "address",
          "name": "oldOwner",
          "type": "address"
        },
        {
          "indexed": false,
          "internalType": "address",
          "name": "newOwner",
          "type": "address"
        }
      ],
      "name": "OwnerChanged",
      "type": "event"
    },
    {
      "anonymous": false,
      "inputs": [
        {
          "indexed": false,
          "internalType": "address",
          "name": "newOwner",
          "type": "address"
        }
      ],
      "name": "OwnerNominated",
      "type": "event"
    },
    {
      "anonymous": false,
      "inputs": [
        {
          "indexed": false,
          "internalType": "uint256",
          "name": "originalFinish",
          "type": "uint256"
        },
        {
          "indexed": false,
          "internalType": "uint256",
          "name": "newFinish",
          "type": "uint256"
        }
      ],
      "name": "PeriodFinishUpdated",
      "type": "event"
    },
    {
      "anonymous": false,
      "inputs": [
        {
          "indexed": false,
          "internalType": "address",
          "name": "token",
          "type": "address"
        },
        {
          "indexed": false,
          "internalType": "uint256",
          "name": "amount",
          "type": "uint256"
        }
      ],
      "name": "Recovered",
      "type": "event"
    },
    {
      "anonymous": false,
      "inputs": [
        {
          "indexed": false,
          "internalType": "uint256",
          "name": "reward",
          "type": "uint256"
        }
      ],
      "name": "RewardAdded",
      "type": "event"
    },
    {
      "anonymous": false,
      "inputs": [
        {
          "indexed": true,
          "internalType": "address",
          "name": "user",
          "type": "address"
        },
        {
          "indexed": false,
          "internalType": "uint256",
          "name": "reward",
          "type": "uint256"
        }
      ],
      "name": "RewardPaid",
      "type": "event"
    },
    {
      "anonymous": false,
      "inputs": [
        {
          "indexed": false,
          "internalType": "uint256",
          "name": "newDuration",
          "type": "uint256"
        }
      ],
      "name": "RewardsDurationUpdated",
      "type": "event"
    },
    {
      "anonymous": false,
      "inputs": [
        {
          "indexed": true,
          "internalType": "address",
          "name": "user",
          "type": "address"
        },
        {
          "indexed": false,
          "internalType": "uint256",
          "name": "amount",
          "type": "uint256"
        }
      ],
      "name": "Staked",
      "type": "event"
    },
    {
      "anonymous": false,
      "inputs": [
        {
          "indexed": true,
          "internalType": "address",
          "name": "user",
          "type": "address"
        },
        {
          "indexed": false,
          "internalType": "uint256",
          "name": "amount",
          "type": "uint256"
        }
      ],
      "name": "Withdrawn",
      "type": "event"
    },
    {
      "inputs": [],
      "name": "acceptOwnership",
      "outputs": [],
      "stateMutability": "nonpayable",
      "type": "function"
    },
    {
      "inputs": [
        {
          "internalType": "address",
          "name": "",
          "type": "address"
        }
      ],
      "name": "externalRewards",
      "outputs": [
        {
          "internalType": "uint256",
          "name": "",
          "type": "uint256"
        }
      ],
      "stateMutability": "view",
      "type": "function"
    },
    {
      "inputs": [],
      "name": "externalRewardsToken",
      "outputs": [
        {
          "internalType": "contract IERC20",
          "name": "",
          "type": "address"
        }
      ],
      "stateMutability": "view",
      "type": "function"
    },
    {
      "inputs": [],
      "name": "externalStakingRewards",
      "outputs": [
        {
          "internalType": "contract IStakingRewards",
          "name": "",
          "type": "address"
        }
      ],
      "stateMutability": "view",
      "type": "function"
    },
    {
      "inputs": [],
      "name": "lastUpdateTime",
      "outputs": [
        {
          "internalType": "uint256",
          "name": "",
          "type": "uint256"
        }
      ],
      "stateMutability": "view",
      "type": "function"
    },
    {
      "inputs": [
        {
          "internalType": "address",
          "name": "_owner",
          "type": "address"
        }
      ],
      "name": "nominateNewOwner",
      "outputs": [],
      "stateMutability": "nonpayable",
      "type": "function"
    },
    {
      "inputs": [],
      "name": "nominatedOwner",
      "outputs": [
        {
          "internalType": "address",
          "name": "",
          "type": "address"
        }
      ],
      "stateMutability": "view",
      "type": "function"
    },
    {
      "inputs": [],
      "name": "owner",
      "outputs": [
        {
          "internalType": "address",
          "name": "",
          "type": "address"
        }
      ],
      "stateMutability": "view",
      "type": "function"
    },
    {
      "inputs": [],
      "name": "periodFinish",
      "outputs": [
        {
          "internalType": "uint256",
          "name": "",
          "type": "uint256"
        }
      ],
      "stateMutability": "view",
      "type": "function"
    },
    {
      "inputs": [],
      "name": "rewardPerTokenStored",
      "outputs": [
        {
          "internalType": "uint256",
          "name": "",
          "type": "uint256"
        }
      ],
      "stateMutability": "view",
      "type": "function"
    },
    {
      "inputs": [],
      "name": "rewardRate",
      "outputs": [
        {
          "internalType": "uint256",
          "name": "",
          "type": "uint256"
        }
      ],
      "stateMutability": "view",
      "type": "function"
    },
    {
      "inputs": [
        {
          "internalType": "address",
          "name": "",
          "type": "address"
        }
      ],
      "name": "rewards",
      "outputs": [
        {
          "internalType": "uint256",
          "name": "",
          "type": "uint256"
        }
      ],
      "stateMutability": "view",
      "type": "function"
    },
    {
      "inputs": [],
      "name": "rewardsDistribution",
      "outputs": [
        {
          "internalType": "address",
          "name": "",
          "type": "address"
        }
      ],
      "stateMutability": "view",
      "type": "function"
    },
    {
      "inputs": [],
      "name": "rewardsDuration",
      "outputs": [
        {
          "internalType": "uint256",
          "name": "",
          "type": "uint256"
        }
      ],
      "stateMutability": "view",
      "type": "function"
    },
    {
      "inputs": [],
      "name": "rewardsToken",
      "outputs": [
        {
          "internalType": "contract IERC20",
          "name": "",
          "type": "address"
        }
      ],
      "stateMutability": "view",
      "type": "function"
    },
    {
      "inputs": [
        {
          "internalType": "address",
          "name": "_rewardsDistribution",
          "type": "address"
        }
      ],
      "name": "setRewardsDistribution",
      "outputs": [],
      "stateMutability": "nonpayable",
      "type": "function"
    },
    {
      "inputs": [],
      "name": "stakingToken",
      "outputs": [
        {
          "internalType": "contract IERC20",
          "name": "",
          "type": "address"
        }
      ],
      "stateMutability": "view",
      "type": "function"
    },
    {
      "inputs": [
        {
          "internalType": "address",
          "name": "",
          "type": "address"
        }
      ],
      "name": "userRewardPerTokenPaid",
      "outputs": [
        {
          "internalType": "uint256",
          "name": "",
          "type": "uint256"
        }
      ],
      "stateMutability": "view",
      "type": "function"
    },
    {
      "inputs": [],
      "name": "totalSupply",
      "outputs": [
        {
          "internalType": "uint256",
          "name": "",
          "type": "uint256"
        }
      ],
      "stateMutability": "view",
      "type": "function"
    },
    {
      "inputs": [
        {
          "internalType": "address",
          "name": "account",
          "type": "address"
        }
      ],
      "name": "balanceOf",
      "outputs": [
        {
          "internalType": "uint256",
          "name": "",
          "type": "uint256"
        }
      ],
      "stateMutability": "view",
      "type": "function"
    },
    {
      "inputs": [],
      "name": "lastTimeRewardApplicable",
      "outputs": [
        {
          "internalType": "uint256",
          "name": "",
          "type": "uint256"
        }
      ],
      "stateMutability": "view",
      "type": "function"
    },
    {
      "inputs": [],
      "name": "rewardPerToken",
      "outputs": [
        {
          "internalType": "uint256",
          "name": "",
          "type": "uint256"
        }
      ],
      "stateMutability": "view",
      "type": "function"
    },
    {
      "inputs": [
        {
          "internalType": "address",
          "name": "account",
          "type": "address"
        }
      ],
      "name": "earned",
      "outputs": [
        {
          "internalType": "uint256",
          "name": "",
          "type": "uint256"
        }
      ],
      "stateMutability": "view",
      "type": "function"
    },
    {
      "inputs": [
        {
          "internalType": "address",
          "name": "account",
          "type": "address"
        }
      ],
      "name": "earnedExternal",
      "outputs": [
        {
          "internalType": "uint256",
          "name": "",
          "type": "uint256"
        }
      ],
      "stateMutability": "nonpayable",
      "type": "function"
    },
    {
      "inputs": [],
      "name": "getRewardForDuration",
      "outputs": [
        {
          "internalType": "uint256",
          "name": "",
          "type": "uint256"
        }
      ],
      "stateMutability": "view",
      "type": "function"
    },
    {
      "inputs": [
        {
          "internalType": "uint256",
          "name": "amount",
          "type": "uint256"
        }
      ],
      "name": "stake",
      "outputs": [],
      "stateMutability": "nonpayable",
      "type": "function"
    },
    {
      "inputs": [
        {
          "internalType": "uint256",
          "name": "amount",
          "type": "uint256"
        }
      ],
      "name": "withdraw",
      "outputs": [],
      "stateMutability": "nonpayable",
      "type": "function"
    },
    {
      "inputs": [],
      "name": "getReward",
      "outputs": [],
      "stateMutability": "nonpayable",
      "type": "function"
    },
    {
      "inputs": [],
      "name": "exit",
      "outputs": [],
      "stateMutability": "nonpayable",
      "type": "function"
    },
    {
      "inputs": [
        {
          "internalType": "uint256",
          "name": "reward",
          "type": "uint256"
        }
      ],
      "name": "notifyRewardAmount",
      "outputs": [],
      "stateMutability": "nonpayable",
      "type": "function"
    },
    {
      "inputs": [
        {
          "internalType": "uint256",
          "name": "timestamp",
          "type": "uint256"
        }
      ],
      "name": "updatePeriodFinish",
      "outputs": [],
      "stateMutability": "nonpayable",
      "type": "function"
    },
    {
      "inputs": [
        {
          "internalType": "address",
          "name": "tokenAddress",
          "type": "address"
        },
        {
          "internalType": "uint256",
          "name": "tokenAmount",
          "type": "uint256"
        }
      ],
      "name": "recoverERC20",
      "outputs": [],
      "stateMutability": "nonpayable",
      "type": "function"
    },
    {
      "inputs": [
        {
          "internalType": "uint256",
          "name": "_rewardsDuration",
          "type": "uint256"
        }
      ],
      "name": "setRewardsDuration",
      "outputs": [],
      "stateMutability": "nonpayable",
      "type": "function"
    }
  ],
  "bytecode": "0x6101006040526000600455600060055562093a806006553480156200002357600080fd5b5060405162001f0938038062001f0983398101604081905262000046916200025d565b836001600160a01b038116620000a25760405162461bcd60e51b815260206004820152601960248201527f4f776e657220616464726573732063616e6e6f74206265203000000000000000604482015260640160405180910390fd5b600080546001600160a01b0319166001600160a01b03831690811782556040805192835260208301919091527fb532073b38c83145e3e5135377a08bf9aab55bc0fd7c1179cd4fb995d2a5159c910160405180910390a1506001600355606082811b6001600160601b0319908116608052600280546001600160a01b0319166001600160a01b03878116919091179091559183901b1660e0526040805163d1af0c7d60e01b815290519183169163d1af0c7d91600480820192602092909190829003018186803b1580156200017657600080fd5b505afa1580156200018b573d6000803e3d6000fd5b505050506040513d601f19601f82011682018060405250810190620001b19190620002c4565b6001600160a01b031660a0816001600160a01b031660601b81525050806001600160a01b03166372f702f36040518163ffffffff1660e01b815260040160206040518083038186803b1580156200020757600080fd5b505afa1580156200021c573d6000803e3d6000fd5b505050506040513d601f19601f82011682018060405250810190620002429190620002c4565b60601b6001600160601b03191660c052506200030392505050565b6000806000806080858703121562000273578384fd5b84516200028081620002ea565b60208601519094506200029381620002ea565b6040860151909350620002a681620002ea565b6060860151909250620002b981620002ea565b939692955090935050565b600060208284031215620002d6578081fd5b8151620002e381620002ea565b9392505050565b6001600160a01b03811681146200030057600080fd5b50565b60805160601c60a05160601c60c05160601c60e05160601c611b65620003a4600039600081816103f301528181610679015281816109a1015281816112fd01526113bf01526000818161036d01528181610a0a015281816110a3015281816112b6015261132c01526000818161031d015281816105fb015281816107010152610e6e01526000818161047101528181610bd70152610ded0152611b656000f3fe608060405234801561001057600080fd5b50600436106101fa5760003560e01c806372f702f31161011a5780639c3705c7116100ad578063cd3daf9d1161007c578063cd3daf9d14610464578063d1af0c7d1461046c578063df136d6514610493578063e9fad8ee1461049c578063ebe2b12b146104a4576101fa565b80639c3705c714610415578063a694fc3a14610435578063c8f33c9114610448578063cc1a378f14610451576101fa565b80638980f11f116100e95780638980f11f146103a85780638b876347146103bb5780638da5cb5b146103db5780639b8a14ee146103ee576101fa565b806372f702f31461036857806379ba50971461038f5780637b0a47ee1461039757806380faa57d146103a0576101fa565b8063386a95251161019257806353a47bb71161016157806353a47bb7146102f2578063556f6e6b1461030557806356f316231461031857806370a082311461033f576101fa565b8063386a9525146102a35780633c6b16ab146102ac5780633d18b912146102bf5780633fc6df6e146102c7576101fa565b806319762143116101ce57806319762143146102625780631c1f78eb146102755780631e02cee31461027d5780632e1a7d4d14610290576101fa565b80628cc262146101ff5780630700037d146102255780631627540c1461024557806318160ddd1461025a575b600080fd5b61021261020d366004611966565b6104ad565b6040519081526020015b60405180910390f35b610212610233366004611966565b600a6020526000908152604090205481565b610258610253366004611966565b61052d565b005b61021261058a565b610258610270366004611966565b610591565b6102126105bb565b61021261028b366004611966565b6105d9565b61025861029e3660046119c9565b610854565b61021260065481565b6102586102ba3660046119c9565b610a72565b610258610d10565b6002546102da906001600160a01b031681565b6040516001600160a01b03909116815260200161021c565b6001546102da906001600160a01b031681565b6102586103133660046119c9565b610edd565b6102da7f000000000000000000000000000000000000000000000000000000000000000081565b61021261034d366004611966565b6001600160a01b03166000908152600f602052604090205490565b6102da7f000000000000000000000000000000000000000000000000000000000000000081565b610258610fa1565b61021260055481565b61021261108b565b6102586103b6366004611980565b611099565b6102126103c9366004611966565b60096020526000908152604090205481565b6000546102da906001600160a01b031681565b6102da7f000000000000000000000000000000000000000000000000000000000000000081565b610212610423366004611966565b600b6020526000908152604090205481565b6102586104433660046119c9565b61118d565b61021260075481565b61025861045f3660046119c9565b611455565b61021261152f565b6102da7f000000000000000000000000000000000000000000000000000000000000000081565b61021260085481565b61025861157d565b61021260045481565b6001600160a01b0381166000908152600a60209081526040808320546009909252822054610525919061051f90670de0b6b3a764000090610519906104fa906104f461152f565b906115a0565b6001600160a01b0388166000908152600f6020526040902054906115b3565b906115bf565b906115cb565b90505b919050565b6105356115d7565b600180546001600160a01b0319166001600160a01b0383169081179091556040519081527f906a1c6bd7e3091ea86693dd029a831c19049ce77f1dce2ce0bab1cacbabce22906020015b60405180910390a150565b600e545b90565b6105996115d7565b600280546001600160a01b0319166001600160a01b0392909216919091179055565b60006105d46006546005546115b390919063ffffffff16565b905090565b6040516370a0823160e01b815230600482015260009081906001600160a01b037f000000000000000000000000000000000000000000000000000000000000000016906370a082319060240160206040518083038186803b15801561063d57600080fd5b505afa158015610651573d6000803e3d6000fd5b505050506040513d601f19601f8201168201806040525081019061067591906119e1565b90507f00000000000000000000000000000000000000000000000000000000000000006001600160a01b0316633d18b9126040518163ffffffff1660e01b8152600401600060405180830381600087803b1580156106d257600080fd5b505af11580156106e6573d6000803e3d6000fd5b50506040516370a0823160e01b8152306004820152600092507f00000000000000000000000000000000000000000000000000000000000000006001600160a01b031691506370a082319060240160206040518083038186803b15801561074c57600080fd5b505afa158015610760573d6000803e3d6000fd5b505050506040513d601f19601f8201168201806040525081019061078491906119e1565b9050600061079282846115a0565b600e54909150156107c757600e546107c3906107ba9061051984670de0b6b3a76400006115b3565b600c54906115cb565b600c555b6001600160a01b0385166000908152600b6020908152604080832054600d909252822054600c5461082d929161051f91670de0b6b3a7640000916105199161080e916115a0565b6001600160a01b038c166000908152600f6020526040902054906115b3565b600c546001600160a01b0388166000908152600d6020526040902055945050505050919050565b600260035414156108805760405162461bcd60e51b815260040161087790611a48565b60405180910390fd5b60026003553361088e61152f565b60085561089961108b565b6007556001600160a01b03811615610902576108b4816104ad565b6001600160a01b0382166000908152600a60209081526040808320939093556008546009909152919020556108e8816105d9565b6001600160a01b0382166000908152600b60205260409020555b600082116109465760405162461bcd60e51b8152602060048201526011602482015270043616e6e6f74207769746864726177203607c1b6044820152606401610877565b600e5461095390836115a0565b600e55336000908152600f602052604090205461097090836115a0565b336000908152600f6020526040908190209190915551632e1a7d4d60e01b8152600481018390526001600160a01b037f00000000000000000000000000000000000000000000000000000000000000001690632e1a7d4d90602401600060405180830381600087803b1580156109e557600080fd5b505af11580156109f9573d6000803e3d6000fd5b50610a339250506001600160a01b037f00000000000000000000000000000000000000000000000000000000000000001690503384611649565b60405182815233907f7084f5476618d8e60b11ef0d7d3f06914655adb8793e28ff7f018d4c76d505d5906020015b60405180910390a250506001600355565b6002546001600160a01b03163314610adf5760405162461bcd60e51b815260206004820152602a60248201527f43616c6c6572206973206e6f742052657761726473446973747269627574696f6044820152691b8818dbdb9d1c9858dd60b21b6064820152608401610877565b6000610ae961152f565b600855610af461108b565b6007556001600160a01b03811615610b5d57610b0f816104ad565b6001600160a01b0382166000908152600a6020908152604080832093909355600854600990915291902055610b43816105d9565b6001600160a01b0382166000908152600b60205260409020555b6004544210610b7c57600654610b749083906115bf565b600555610bbf565b600454600090610b8c90426115a0565b90506000610ba5600554836115b390919063ffffffff16565b600654909150610bb99061051986846115cb565b60055550505b6040516370a0823160e01b81523060048201526000907f00000000000000000000000000000000000000000000000000000000000000006001600160a01b0316906370a082319060240160206040518083038186803b158015610c2157600080fd5b505afa158015610c35573d6000803e3d6000fd5b505050506040513d601f19601f82011682018060405250810190610c5991906119e1565b9050610c70600654826115bf90919063ffffffff16565b6005541115610cc15760405162461bcd60e51b815260206004820152601860248201527f50726f76696465642072657761726420746f6f206869676800000000000000006044820152606401610877565b426007819055600654610cd491906115cb565b6004556040518381527fde88a922e0d3b88b24e9623efeb464919c6bf9f66857a65e2bfcf2ce87a9433d906020015b60405180910390a1505050565b60026003541415610d335760405162461bcd60e51b815260040161087790611a48565b600260035533610d4161152f565b600855610d4c61108b565b6007556001600160a01b03811615610db557610d67816104ad565b6001600160a01b0382166000908152600a6020908152604080832093909355600854600990915291902055610d9b816105d9565b6001600160a01b0382166000908152600b60205260409020555b336000908152600a6020908152604080832054600b909252909120548115610e5257336000818152600a6020526040812055610e1c907f00000000000000000000000000000000000000000000000000000000000000006001600160a01b03169084611649565b60405182815233907fe2403640ba68fed3a2f88b7557551d1993f84b99bb10ff833f0cf8db0c5e04869060200160405180910390a25b8015610ed357336000818152600b6020526040812055610e9d907f00000000000000000000000000000000000000000000000000000000000000006001600160a01b03169083611649565b60405182815233907fce68cdb84849c4239fa00c1e372fda2ae0f55014178702abf36b26508d8639599060200160405180910390a25b5050600160035550565b610ee56115d7565b6000610eef61152f565b600855610efa61108b565b6007556001600160a01b03811615610f6357610f15816104ad565b6001600160a01b0382166000908152600a6020908152604080832093909355600854600990915291902055610f49816105d9565b6001600160a01b0382166000908152600b60205260409020555b600480549083905560408051828152602081018590527f79ee0d2fe20914c8d6e964c5286dfcc168f3b4b7c36d6633cba3654d0b36706e9101610d03565b6001546001600160a01b031633146110195760405162461bcd60e51b815260206004820152603560248201527f596f75206d757374206265206e6f6d696e61746564206265666f726520796f7560448201527402063616e20616363657074206f776e65727368697605c1b6064820152608401610877565b600054600154604080516001600160a01b0393841681529290911660208301527fb532073b38c83145e3e5135377a08bf9aab55bc0fd7c1179cd4fb995d2a5159c910160405180910390a160018054600080546001600160a01b03199081166001600160a01b03841617909155169055565b60006105d4426004546116b1565b6110a16115d7565b7f00000000000000000000000000000000000000000000000000000000000000006001600160a01b0316826001600160a01b0316141561112d5760405162461bcd60e51b815260206004820152602160248201527f43616e6e6f7420776974686472617720746865207374616b696e6720746f6b656044820152603760f91b6064820152608401610877565b600054611147906001600160a01b03848116911683611649565b604080516001600160a01b0384168152602081018390527f8c1256b8896378cd5044f80c202f9772b9d77dc85c8a6eb51967210b09bfaa28910160405180910390a15050565b600260035414156111b05760405162461bcd60e51b815260040161087790611a48565b6002600355336111be61152f565b6008556111c961108b565b6007556001600160a01b03811615611232576111e4816104ad565b6001600160a01b0382166000908152600a6020908152604080832093909355600854600990915291902055611218816105d9565b6001600160a01b0382166000908152600b60205260409020555b600082116112735760405162461bcd60e51b815260206004820152600e60248201526d043616e6e6f74207374616b6520360941b6044820152606401610877565b600e5461128090836115cb565b600e55336000908152600f602052604090205461129d90836115cb565b336000818152600f60205260409020919091556112e6907f00000000000000000000000000000000000000000000000000000000000000006001600160a01b03169030856116c7565b60405163095ea7b360e01b81526001600160a01b037f000000000000000000000000000000000000000000000000000000000000000081166004830152602482018490527f0000000000000000000000000000000000000000000000000000000000000000169063095ea7b390604401602060405180830381600087803b15801561137057600080fd5b505af1158015611384573d6000803e3d6000fd5b505050506040513d601f19601f820116820180604052508101906113a891906119a9565b5060405163534a7e1d60e11b8152600481018390527f00000000000000000000000000000000000000000000000000000000000000006001600160a01b03169063a694fc3a90602401600060405180830381600087803b15801561140b57600080fd5b505af115801561141f573d6000803e3d6000fd5b50506040518481523392507f9e71bc8eea02a63969f509818f2dafb9254532904319f9dbda79b67bd34a5f3d9150602001610a61565b61145d6115d7565b60045442116114fa5760405162461bcd60e51b815260206004820152605860248201527f50726576696f7573207265776172647320706572696f64206d7573742062652060448201527f636f6d706c657465206265666f7265206368616e67696e67207468652064757260648201527f6174696f6e20666f7220746865206e657720706572696f640000000000000000608482015260a401610877565b60068190556040518181527ffb46ca5a5e06d4540d6387b930a7c978bce0db5f449ec6b3f5d07c6e1d44f2d39060200161057f565b6000600e5460001415611545575060085461058e565b6105d4611574600e54610519670de0b6b3a764000061156e60055461156e6007546104f461108b565b906115b3565b600854906115cb565b336000908152600f602052604090205461159690610854565b61159e610d10565b565b60006115ac8284611ad6565b9392505050565b60006115ac8284611ab7565b60006115ac8284611a97565b60006115ac8284611a7f565b6000546001600160a01b0316331461159e5760405162461bcd60e51b815260206004820152602f60248201527f4f6e6c792074686520636f6e7472616374206f776e6572206d6179207065726660448201526e37b936903a3434b99030b1ba34b7b760891b6064820152608401610877565b6040516001600160a01b0383166024820152604481018290526116ac90849063a9059cbb60e01b906064015b60408051601f198184030181529190526020810180516001600160e01b03166001600160e01b031990931692909217909152611705565b505050565b60008183106116c057816115ac565b5090919050565b6040516001600160a01b03808516602483015283166044820152606481018290526116ff9085906323b872dd60e01b90608401611675565b50505050565b600061175a826040518060400160405280602081526020017f5361666545524332303a206c6f772d6c6576656c2063616c6c206661696c6564815250856001600160a01b03166117d79092919063ffffffff16565b8051909150156116ac578080602001905181019061177891906119a9565b6116ac5760405162461bcd60e51b815260206004820152602a60248201527f5361666545524332303a204552433230206f7065726174696f6e20646964206e6044820152691bdd081cdd58d8d9595960b21b6064820152608401610877565b60606117e684846000856117ee565b949350505050565b60608247101561184f5760405162461bcd60e51b815260206004820152602660248201527f416464726573733a20696e73756666696369656e742062616c616e636520666f6044820152651c8818d85b1b60d21b6064820152608401610877565b843b61189d5760405162461bcd60e51b815260206004820152601d60248201527f416464726573733a2063616c6c20746f206e6f6e2d636f6e74726163740000006044820152606401610877565b600080866001600160a01b031685876040516118b991906119f9565b60006040518083038185875af1925050503d80600081146118f6576040519150601f19603f3d011682016040523d82523d6000602084013e6118fb565b606091505b509150915061190b828286611916565b979650505050505050565b606083156119255750816115ac565b8251156119355782518084602001fd5b8160405162461bcd60e51b81526004016108779190611a15565b80356001600160a01b038116811461052857600080fd5b600060208284031215611977578081fd5b6115ac8261194f565b60008060408385031215611992578081fd5b61199b8361194f565b946020939093013593505050565b6000602082840312156119ba578081fd5b815180151581146115ac578182fd5b6000602082840312156119da578081fd5b5035919050565b6000602082840312156119f2578081fd5b5051919050565b60008251611a0b818460208701611aed565b9190910192915050565b6000602082528251806020840152611a34816040850160208701611aed565b601f01601f19169190910160400192915050565b6020808252601f908201527f5265656e7472616e637947756172643a207265656e7472616e742063616c6c00604082015260600190565b60008219821115611a9257611a92611b19565b500190565b600082611ab257634e487b7160e01b81526012600452602481fd5b500490565b6000816000190483118215151615611ad157611ad1611b19565b500290565b600082821015611ae857611ae8611b19565b500390565b60005b83811015611b08578181015183820152602001611af0565b838111156116ff5750506000910152565b634e487b7160e01b600052601160045260246000fdfea264697066735822122061d67a49ebb2b2a5eca8284436bc6e806dabfb2a488e3aa27c29d9a4c01a620f64736f6c63430008030033",
  "immutableReferences": {
    "2387": [
      {
        "length": 32,
        "start": 1137
      },
      {
        "length": 32,
        "start": 3031
      },
      {
        "length": 32,
        "start": 3565
      }
    ],
    "2390": [
      {
        "length": 32,
        "start": 797
      },
      {
        "length": 32,
        "start": 1531
      },
      {
        "length": 32,
        "start": 1793
      },
      {
        "length": 32,
        "start": 3694
      }
    ],
    "2393": [
      {
        "length": 32,
        "start": 877
      },
      {
        "length": 32,
        "start": 2570
      },
      {
        "length": 32,
        "start": 4259
      },
      {
        "length": 32,
        "start": 4790
      },
      {
        "length": 32,
        "start": 4908
      }
    ],
    "2433": [
      {
        "length": 32,
        "start": 1011
      },
      {
        "length": 32,
        "start": 1657
      },
      {
        "length": 32,
        "start": 2465
      },
      {
        "length": 32,
        "start": 4861
      },
      {
        "length": 32,
        "start": 5055
      }
    ]
  },
  "source": "// SPDX-License-Identifier: MIT\n// solhint-disable not-rely-on-time\n\npragma solidity ^0.8.3;\n\nimport \"./ubeswap-farming/openzeppelin-solidity/contracts/Math.sol\";\nimport \"./ubeswap-farming/openzeppelin-solidity/contracts/SafeMath.sol\";\nimport \"./ubeswap-farming/openzeppelin-solidity/contracts/SafeERC20.sol\";\nimport \"./ubeswap-farming/openzeppelin-solidity/contracts/ReentrancyGuard.sol\";\n\n// Inheritance\nimport \"./ubeswap-farming/synthetix/contracts/interfaces/IStakingRewards.sol\";\nimport \"./IMoolaStakingRewards.sol\";\nimport \"./ubeswap-farming/synthetix/contracts/RewardsDistributionRecipient.sol\";\n\ncontract MoolaStakingRewards is IMoolaStakingRewards, RewardsDistributionRecipient, ReentrancyGuard {\n    using SafeMath for uint256;\n    using SafeERC20 for IERC20;\n\n    /* ========== STATE VARIABLES ========== */\n\n    IERC20 public immutable rewardsToken;\n    IERC20 public immutable externalRewardsToken;\n    IERC20 public immutable stakingToken;\n    uint256 public periodFinish = 0;\n    uint256 public rewardRate = 0;\n    uint256 public rewardsDuration = 7 days;\n    uint256 public lastUpdateTime;\n    uint256 public rewardPerTokenStored;\n\n    mapping(address => uint256) public userRewardPerTokenPaid;\n    mapping(address => uint256) public rewards;\n    mapping(address => uint256) public externalRewards;\n\n    uint256 private externalRewardPerTokenStoredWad;\n    mapping(address => uint256) private externalUserRewardPerTokenPaidWad;\n\n    uint256 private _totalSupply;\n    mapping(address => uint256) private _balances;\n\n    IStakingRewards public immutable externalStakingRewards;\n\n    /* ========== EVENTS ========== */\n    event PeriodFinishUpdated(uint256 originalFinish, uint256 newFinish);\n\n    /* ========== CONSTRUCTOR ========== */\n\n    constructor(\n        address _owner,\n        address _rewardsDistribution,\n        address _rewardsToken,\n        IStakingRewards _externalStakingRewards\n    ) Owned(_owner) {\n        rewardsToken = IERC20(_rewardsToken);\n        rewardsDistribution = _rewardsDistribution;\n        externalStakingRewards = _externalStakingRewards;\n        externalRewardsToken = _externalStakingRewards.rewardsToken();\n        stakingToken = _externalStakingRewards.stakingToken();\n    }\n\n    /* ========== VIEWS ========== */\n\n    function totalSupply() external view override returns (uint256) {\n        return _totalSupply;\n    }\n\n    function balanceOf(address account) external view override returns (uint256) {\n        return _balances[account];\n    }\n\n    function lastTimeRewardApplicable() public view override returns (uint256) {\n        return Math.min(block.timestamp, periodFinish);\n    }\n\n    function rewardPerToken() public view override returns (uint256) {\n        if (_totalSupply == 0) {\n            return rewardPerTokenStored;\n        }\n        return\n            rewardPerTokenStored.add(\n                lastTimeRewardApplicable().sub(lastUpdateTime).mul(rewardRate).mul(1e18).div(_totalSupply)\n            );\n    }\n\n    function earned(address account) public view override returns (uint256) {\n        return _balances[account].mul(rewardPerToken().sub(userRewardPerTokenPaid[account])).div(1e18).add(rewards[account]);\n    }\n\n    function earnedExternal(address account) public override returns (uint256) {\n        uint256 externalOldTotalRewards = externalRewardsToken.balanceOf(address(this));\n        externalStakingRewards.getReward();\n        uint256 externalTotalRewards = externalRewardsToken.balanceOf(address(this));\n\n        uint256 newExternalRewardsAmount = externalTotalRewards.sub(externalOldTotalRewards);\n        \n        if (_totalSupply > 0) {\n            externalRewardPerTokenStoredWad = externalRewardPerTokenStoredWad.add(newExternalRewardsAmount.mul(1e18).div(_totalSupply));\n        }\n\n        uint256 returnValue = _balances[account].mul(externalRewardPerTokenStoredWad.sub(externalUserRewardPerTokenPaidWad[account])).div(1e18).add(externalRewards[account]);\n\n        externalUserRewardPerTokenPaidWad[account] = externalRewardPerTokenStoredWad;\n\n        return returnValue;\n    }\n\n    function getRewardForDuration() external view override returns (uint256) {\n        return rewardRate.mul(rewardsDuration);\n    }\n\n    /* ========== MUTATIVE FUNCTIONS ========== */\n\n    // XXX: removed notPaused\n    function stake(uint256 amount) external override nonReentrant updateReward(msg.sender) {\n        require(amount > 0, \"Cannot stake 0\");\n        _totalSupply = _totalSupply.add(amount);\n        _balances[msg.sender] = _balances[msg.sender].add(amount);\n        stakingToken.safeTransferFrom(msg.sender, address(this), amount);\n        stakingToken.approve(address(externalStakingRewards), amount);\n        externalStakingRewards.stake(amount);\n        emit Staked(msg.sender, amount);\n    }\n\n    function withdraw(uint256 amount) public override nonReentrant updateReward(msg.sender) {\n        require(amount > 0, \"Cannot withdraw 0\");\n        _totalSupply = _totalSupply.sub(amount);\n        _balances[msg.sender] = _balances[msg.sender].sub(amount);\n        externalStakingRewards.withdraw(amount);\n        stakingToken.safeTransfer(msg.sender, amount);\n        emit Withdrawn(msg.sender, amount);\n    }\n\n    function getReward() public override nonReentrant updateReward(msg.sender) {\n        uint256 reward = rewards[msg.sender];\n        uint256 externalReward = externalRewards[msg.sender];\n\n        if (reward > 0) {\n            rewards[msg.sender] = 0;\n            rewardsToken.safeTransfer(msg.sender, reward);\n            emit RewardPaid(msg.sender, reward);\n        }\n\n        if (externalReward > 0) {\n            externalRewards[msg.sender] = 0;\n            externalRewardsToken.safeTransfer(msg.sender, externalReward);\n            emit ExternalRewardPaid(msg.sender, reward);\n        }\n    }\n\n    function exit() external override {\n        withdraw(_balances[msg.sender]);\n        getReward();\n    }\n\n    /* ========== RESTRICTED FUNCTIONS ========== */\n\n    function notifyRewardAmount(uint256 reward) external override onlyRewardsDistribution updateReward(address(0)) {\n        if (block.timestamp >= periodFinish) {\n            rewardRate = reward.div(rewardsDuration);\n        } else {\n            uint256 remaining = periodFinish.sub(block.timestamp);\n            uint256 leftover = remaining.mul(rewardRate);\n            rewardRate = reward.add(leftover).div(rewardsDuration);\n        }\n\n        // Ensure the provided reward amount is not more than the balance in the contract.\n        // This keeps the reward rate in the right range, preventing overflows due to\n        // very high values of rewardRate in the earned and rewardsPerToken functions;\n        // Reward + leftover must be less than 2^256 / 10^18 to avoid overflow.\n        uint balance = rewardsToken.balanceOf(address(this));\n        require(rewardRate <= balance.div(rewardsDuration), \"Provided reward too high\");\n\n        lastUpdateTime = block.timestamp;\n        periodFinish = block.timestamp.add(rewardsDuration);\n        emit RewardAdded(reward);\n    }\n\n    // End rewards emission earlier\n    function updatePeriodFinish(uint timestamp) external onlyOwner updateReward(address(0)) {\n        uint256 oldPeriodFinish = periodFinish;\n        periodFinish = timestamp;\n        emit PeriodFinishUpdated(oldPeriodFinish, periodFinish);\n    }\n\n    // Added to support recovering LP Rewards from other systems such as BAL to be distributed to holders\n    function recoverERC20(address tokenAddress, uint256 tokenAmount) external onlyOwner {\n        require(tokenAddress != address(stakingToken), \"Cannot withdraw the staking token\");\n        IERC20(tokenAddress).safeTransfer(owner, tokenAmount);\n        emit Recovered(tokenAddress, tokenAmount);\n    }\n\n    function setRewardsDuration(uint256 _rewardsDuration) external onlyOwner {\n        require(\n            block.timestamp > periodFinish,\n            \"Previous rewards period must be complete before changing the duration for the new period\"\n        );\n        rewardsDuration = _rewardsDuration;\n        emit RewardsDurationUpdated(rewardsDuration);\n    }\n\n    /* ========== MODIFIERS ========== */\n\n    modifier updateReward(address account) {\n        rewardPerTokenStored = rewardPerToken();\n        lastUpdateTime = lastTimeRewardApplicable();\n        if (account != address(0)) {\n            rewards[account] = earned(account);\n            userRewardPerTokenPaid[account] = rewardPerTokenStored;\n            externalRewards[account] = earnedExternal(account);\n        }\n        _;\n    }\n\n    /* ========== EVENTS ========== */\n\n    event RewardAdded(uint256 reward);\n    event Staked(address indexed user, uint256 amount);\n    event Withdrawn(address indexed user, uint256 amount);\n    event RewardPaid(address indexed user, uint256 reward);\n    event ExternalRewardPaid(address indexed user, uint256 reward);\n    event RewardsDurationUpdated(uint256 newDuration);\n    event Recovered(address token, uint256 amount);\n}\n",
  "sourcePath": "/home/home/moola/moola-farming/contracts/MoolaStakingRewards.sol",
  "compiler": {
    "name": "solc",
    "version": "0.8.3+commit.8d00100c.Emscripten.clang"
  },
  "schemaVersion": "3.4.1",
  "updatedAt": "2021-07-19T14:15:38.844Z",
  "devdoc": {
    "kind": "dev",
    "methods": {},
    "version": 1
  },
  "userdoc": {
    "kind": "user",
    "methods": {},
    "version": 1
  }
}